:100000000C9434000C9446000C9446000C9446006A
:100010000C9446000C9446000C9446000C94460048
:100020000C9446000C9446000C9446000C94460038
:100030000C9446000C9446000C9446000C94460028
:100040000C9446000C9446000C9446000C94460018
:100050000C9446000C9446000C9446000C94460008
:100060000C9446000C94460011241FBECFEFD8E03C
:10007000DEBFCDBF11E0A0E0B1E001C01D92A33111
:10008000B107E1F70E948C010C9411020C9400005E
:1000900091E097BB81958093B2009093B100B89B9B
:1000A000FECF0895CF93DF93EC0111C08AEF90E06B
:1000B0000E9448008AEF90E00E9448008AEF90E09A
:1000C0000E9448008AEF90E00E9448002197209704
:1000D00069F7DF91CF91089584B1886284B98AB1BC
:1000E00082648AB98FEF85B95E980895FF920F9365
:1000F0001F93F82E08E010E0F7FE02C02B9A01C013
:100100002B982D9A85E090E00E944800110F1C99D1
:1001100011602D9885E090E00E944800015011F098
:10012000FF0CEACF812F1F910F91FF9008955998EE
:100130000E947600599A0895DF93CF930F92CDB71E
:10014000DEB7599869830E9476006981862F0E94E4
:100150007600599A0F90CF91DF9108950F931F93D6
:10016000CF93DF93062F59980E947600C6E0D1E026
:1001700010E004C089910E9476001F5F1017D0F331
:10018000599ADF91CF911F910F9108955E9880E267
:100190006CE70E949C0081E260E00E949C0084E287
:1001A00060E00E949C0083E263E00E949C0086E283
:1001B00067E00E949C0085E262E00E949C0087EE5E
:1001C00080930601809307018093080180930901C1
:1001D00080930A0180E365E00E94AE0080E26AE756
:1001E0000E949C008FEF0E949700089587E26EE7BF
:1001F0000E949C0080E26AE70E949C0081EE0E94BF
:10020000970080EA64E00E94AE005E9A81E090E090
:100210000E9452005E9808951F93CF93DF93EC01E4
:1002200010E009C0809307010E94F60085E090E08D
:100230000E9452001F5FFE01E10FF11D80818823A3
:1002400089F7109207010E94F60085E090E00E9475
:100250005200DF91CF911F9108955E9880E26DE387
:100260000E949C0081E260E00E949C0086E267E0C0
:100270000E949C0081E364E00E949C0080E26BE3AA
:100280000E949C005E9A08950F931F93CF93DF9373
:10029000599885E090E00E94480008E011E617FFB9
:1002A00002C02B9A01C02B982D9A85E090E00E9405
:1002B00048002D9885E090E00E944800015019F414
:1002C000C2E0D1E019C0110FEACF110F1C9B02C090
:1002D000116001C01E7F2D9A85E090E00E944800C9
:1002E0002D9885E090E00E944800015071F7199325
:1002F00081E0C630D80719F008E010E0E6CF299A6F
:1003000082EE0E94970087E260E40E949C00DF91E9
:10031000CF911F910F910895FF920F931F930E9409
:100320006C008FEF88B910E08AE0F82E0DE0909114
:1003300000019093010186B18170809300018823B0
:1003400031F4992321F01F5F143608F010E0812F5B
:1003500090E06BE071E04AE050E00E94CC01F09246
:100360000D0100930E010E94C60080910B01809345
:10037000060180910C018093070180910D0180930B
:10038000080180910E01809309010E94F60082E32A
:1003900090E00E945200CBCFFB019F01E8944230D5
:1003A000C4F04532B4F44A3029F497FB1EF490951A
:1003B00081959F4F642F77270E94FD01805D8A33CE
:1003C0000CF0895D8193CB010097A1F716F45DE2F3
:1003D00051931082C9010C94ED01DC01FC01672FDF
:1003E00071917723E1F7329704C07C916D9370830C
:1003F0006291AE17BF07C8F30895AA1BBB1B51E15A
:1004000007C0AA1FBB1FA617B70710F0A61BB70B84
:10041000881F991F5A95A9F780959095BC01CD0129
:060420000895F894FFCFDF
:00000001FF
