:100000000C9434000C9446000C9446000C9446006A
:100010000C9446000C9446000C9446000C94460048
:100020000C9446000C9446000C9446000C94460038
:100030000C9446000C9446000C9446000C94460028
:100040000C9446000C9446000C9446000C94460018
:100050000C9446000C9446000C9446000C94460008
:100060000C9446000C94460011241FBECFEFD8E03C
:10007000DEBFCDBF11E0A0E0B1E001C01D92AD3008
:10008000B107E1F70E948C010C94AB010C940000C5
:1000900091E097BB81958093B2009093B100B89B9B
:1000A000FECF0895CF93DF93EC0111C08AEF90E06B
:1000B0000E9448008AEF90E00E9448008AEF90E09A
:1000C0000E9448008AEF90E00E9448002197209704
:1000D00069F7DF91CF91089584B1886284B98AB1BC
:1000E00082648AB98FEF85B95E980895FF920F9365
:1000F0001F93F82E08E010E0F7FE02C02B9A01C013
:100100002B982D9A85E090E00E944800110F1C99D1
:1001100011602D9885E090E00E944800015011F098
:10012000FF0CEACF812F1F910F91FF9008955998EE
:100130000E947600599A0895DF93CF930F92CDB71E
:10014000DEB7599869830E9476006981862F0E94E4
:100150007600599A0F90CF91DF9108950F931F93D6
:10016000CF93DF93062F59980E947600C4E0D1E028
:1001700010E004C089910E9476001F5F1017D0F331
:10018000599ADF91CF911F910F9108955E9880E267
:100190006CE70E949C0081E260E00E949C0084E287
:1001A00060E00E949C0083E263E00E949C0086E283
:1001B00067E00E949C0085E262E00E949C0087EE5E
:1001C00080930401809305018093060180930701C9
:1001D0008093080180E365E00E94AE0080E26AE758
:1001E0000E949C008FEF0E949700089587E26EE7BF
:1001F0000E949C0080E26AE70E949C0081EE0E94BF
:10020000970080EA64E00E94AE005E9A81E090E090
:100210000E9452005E9808951F93CF93DF93EC01E4
:1002200010E009C0809305010E94F60085E090E08F
:100230000E9452001F5FFE01E10FF11D80818823A3
:1002400089F7109205010E94F60085E090E00E9477
:100250005200DF91CF911F9108955E9880E26DE387
:100260000E949C0081E260E00E949C0086E267E0C0
:100270000E949C0081E364E00E949C0080E26BE3AA
:100280000E949C005E9A08950F931F93CF93DF9373
:10029000599885E090E00E94480008E011E617FFB9
:1002A00002C02B9A01C02B982D9A85E090E00E9405
:1002B00048002D9885E090E00E944800015019F414
:1002C000C0E0D1E019C0110FEACF110F1C9B02C092
:1002D000116001C01E7F2D9A85E090E00E944800C9
:1002E0002D9885E090E00E944800015071F7199325
:1002F00081E0C430D80719F008E010E0E6CF299A71
:1003000082EE0E94970087E260E40E949C00DF91E9
:10031000CF911F910F910895EF92FF920F931F932A
:100320000E946C0098E4E92E81E4F82E09E410EABA
:100330000E94C600E0920401F092050100930601BC
:10034000109307010E94F6000E942D0184EF91E0B6
:0A0350000E945200EDCFF894FFCF99
:00000001FF
