:100000000C9434000C9451000C9451000C94510049
:100010000C9451000C9451000C9451000C9451001C
:100020000C9451000C94A3000C9451000C945100BA
:100030000C9451000C9451000C9451000C945100FC
:100040000C9451000C9451000C9470000C945100CD
:100050000C9451000C9451000C9451000C945100DC
:100060000C9451000C94510011241FBECFEFD4E02A
:10007000DEBFCDBF11E0A0E0B1E0ECEBF7E002C0E5
:1000800005900D92A030B107D9F713E0A0E0B1E0E0
:1000900001C01D92A231B107E1F70E94DD020C946C
:1000A000DD030C9400002998E5E0F1E090E00DC03C
:1000B000990F4F9991602D9A2D988F5F8830C1F7D5
:1000C000919381E0E930F80711F080E0F1CF299AAF
:1000D000089584B18E6284B98FEF85B92998089507
:1000E0001F920F920FB60F9211242F938F939F930D
:1000F000EF93FF93F894E0910001F091010180915A
:10010000C600E25FFE4F8083809100019091010163
:1001100001969093010180930001809100019091DC
:100120000101805A914020F01092010110920001CB
:100130007894FF91EF919F918F912F910F900FBE27
:100140000F901F9018951F920F920FB60F921124C7
:100150000F900FBE0F901F90189597E097B986E209
:1001600084B998B91092C5008CE08093C40082E0F5
:100170008093C00088E98093C10086E08093C2002C
:1001800081E08093B100789408958091C00087FF4A
:10019000FCCF8091C60090E0089591E097BB8195D7
:1001A0008093B200B89BFECF0895CF93DF93EC010C
:1001B0000DC08AEF0E94CD008AEF0E94CD008AEF29
:1001C0000E94CD008AEF0E94CD002197209789F7E9
:1001D000DF91CF910895FF920F931F93182FFF2463
:1001E00000E017FF02C02B9A01C02B982D9A85E0E2
:1001F0000E94CD00000F1C9901602D9885E00E949F
:10020000CD00F39488E0F81611F0110FEACF802F9B
:1002100090E01F910F91FF9008952A980E94EB00A3
:100220002A9A90E008951F93162F2A980E94EB00B7
:10023000812F0E94EB002A9A90E01F9108950F935E
:100240001F93CF93DF932A9885E00E94CD0000E0B2
:1002500011E617FF02C02B9A01C02B982D9A85E05A
:100260000E94CD002D9885E00E94CD000F5F0830E0
:10027000E1F0110FEECF812F880F1C9B03C0182FC8
:10028000116002C0182F1E7F2D9A85E00E94CD00BC
:100290002D9885E00E94CD000F5F083061F719931B
:1002A00081E0C930D80719F405C0C5E0D1E000E00D
:1002B00010E0E1CF2A9A82EE0E940D0160E487E20D
:1002C0000E941301DF91CF911F910F9108952998FA
:1002D0006DE380E20E94130160E081E20E9413015D
:1002E00067E086E20E94130164E081E30E9413014B
:1002F0006BE380E20E941301299A08950F931F93E4
:10030000CF93DF93062F2A980E94EB00C9E0D1E03B
:1003100010E004C089910E94EB001F5F1017D1F715
:100320002A9ADF91CF911F910F91089529986CE738
:1003300080E20E94130160E081E20E94130160E00C
:1003400084E20E94130163E083E20E94130167E0EC
:1003500086E20E94130162E085E20E94130187EEAB
:100360008093090180930A0180930B0180930C0113
:1003700080930D0165E080E30E947E016AE780E2E0
:100380000E9413018FEF0E940D0190E008956EE727
:1003900087E20E9413016AE780E20E94130181EE66
:1003A0000E940D0164E080EA0E947E01299A81E0AA
:1003B00090E00E94D500299808950F931F93CF9342
:1003C000DF938C01C0E0D0E008C0E0930A010E94F6
:1003D000C70185E090E00E94D500F801EC0FF11D07
:1003E000E0812196EE2389F710920A010E94C7014D
:1003F00085E090E00E94D500DF91CF911F910F9191
:100400000895DF92EF92FF920F931F93579A2998C6
:1004100085E00E94CD002A9A85E00E94CD00DD246F
:1004200094E0E92E9EE6F92E93EA092F112D07FF9D
:1004300002C05F9A01C05F982D9A85E00E94CD00AE
:100440002D98D39488E1D81629F0EE0CFF1C001FDC
:10045000111FEDCF299885E00E94CD002A981F91A9
:100460000F91FF90EF90DF900895CF92DF92EF927F
:10047000FF920F931F93579A299885E00E94CD0011
:100480002A9A85E00E94CD00CC2431C0EE0CFF1CDE
:10049000001F111FE7FE02C05F9A01C05F982D9AEE
:1004A00085E00E94CD002D98D39488E0D81671F78E
:1004B000C39485E0C816D9F4DD2445E0E42E4EE669
:1004C000F42E43EA042F112D07FF02C05F9A01C0EA
:1004D0005F982D9A85E00E94CD002D98D39488E1F5
:1004E000D81661F0EE0CFF1C001F111FEDCFDD24AC
:1004F00027EEE22EF12C012D112DCCCF299885E08D
:100500000E94CD002A9885E00E94CD008AB18F73A9
:100510008AB9299A85E00E94CD002A981F910F91EF
:10052000FF90EF90DF90CF900895FF920F931F936D
:10053000CF93DF93299A85E00E94CD00FF242BC042
:10054000000F07FF02C05F9A01C05F982D9A85E0F7
:100550000E94CD002D981F5F183091F7F39485E02D
:10056000F816C9F4CEE0D3E0188100E017FF02C00E
:100570005F9A01C05F982D9A85E00E94CD002D986A
:100580000F5F083011F0110FF1CF219683E0C231D7
:10059000D80751F703C007EE10E0D3CF2998DF91B9
:1005A000CF911F910F91FF900895982F8091C000D7
:1005B00085FFFCCF9093C6000895CF92DF92FF9203
:1005C0000F931F93CF93DF930E94AD008CED95E0C6
:1005D0000E94D500C0E0D0E0419882E390E00E9404
:1005E000D500419A4098429882E390E00E94D5005D
:1005F000409A429A2196C530D10571F78CED95E06D
:100600000E94D5000E946900C0E0D0E02A988FEFD8
:100610000E94EB00182F2A9A82E390E00E94D500F6
:100620002196C431D10591F71E3099F4C0E0D0E095
:1006300040988AEF90E00E94D500409A8AEF90E0BF
:100640000E94D5002196C230D10591F7FF24F39482
:1006500011C0C0E0D0E041988AEF90E00E94D50040
:10066000419A8AEF90E00E94D5002196C230D105D0
:1006700091F7FF24409821E0F21699F40E94670157
:1006800010920501109206011092070110920801C4
:10069000C0E0D0E000E010E065E0C62E61E0D62EBC
:1006A00005C00E943502ECCF00E010E0809100010F
:1006B000909101012091020130910301821793076B
:1006C000E9F14198DE01A25FBC4FF901E25FFE4F04
:1006D00080818C93C901019690930301809302015C
:1006E00021968050924020F0109203011092020156
:1006F000C430D10511F581E0F816B9F40E949601D5
:1007000080910E038093090180910F0380930A0169
:100710008091100380930B018091110380930C0151
:100720000E94C7010E94670106C00E9401020E9448
:1007300095020E943502C0E0D0E0419A21E0F21615
:1007400039F44A990CC00E941F01F092040107C0BD
:100750004E9B05C00E94530081E08093040180916C
:100760000401882309F4A2CFF6019081992331F086
:100770008091C00085FFFCCF9093C600319681E048
:10078000E930F80791F7109204010115110519F4E9
:10079000409A41980BC00130110519F4419A4298D2
:1007A00005C00230110511F4429A40980F5F1F4FA7
:0C07B0000330110509F07ACF77CFFFCF9E
:00000001FF
