:100000000C9434000C9446000C9446000C9446006A
:100010000C9446000C9446000C9446000C94460048
:100020000C9446000C9446000C9446000C94460038
:100030000C9446000C9446000C9446000C94460028
:100040000C9446000C9446000C9446000C94460018
:100050000C9446000C9446000C9446000C94460008
:100060000C9446000C94460011241FBECFEFD8E03C
:10007000DEBFCDBF11E0A0E0B1E001C01D92AD3008
:10008000B107E1F70E9417030C9485030C9400005C
:10009000DF93CF9300D0CDB7DEB79A83898387E310
:1000A00090E021E0FC01208382EB90E02981219502
:1000B000FC01208381EB90E021E0FC012083000023
:1000C00087E390E0FC018081882F90E08170907040
:1000D0000097B1F30F900F90CF91DF910895DF93C8
:1000E000CF9300D0CDB7DEB79A83898315C08AEF4E
:1000F00090E00E9448008AEF90E00E9448008AEF5A
:1001000090E00E9448008AEF90E00E9448008981B8
:100110009A8101979A83898389819A81009739F717
:100120000F900F90CF91DF910895DF93CF93CDB7CC
:10013000DEB784E290E024E230E0F9012081286219
:10014000FC0120838AE290E02AE230E0F90120817C
:100150002264FC01208385E290E02FEFFC012083E4
:100160008BE290E02BE230E0F90120812F7BFC0153
:100170002083CF91DF910895DF93CF9300D00F922A
:10018000CDB7DEB79B838A83198214C08981882FFB
:1001900090E02A813B81820F931FFC018081809334
:1001A00005010E94F30085E090E00E946F008981C4
:1001B0008F5F89838981882F90E02A813B81820F1C
:1001C000931FFC018081882309F7109205010E948A
:1001D000F30085E090E00E946F000F900F900F9069
:1001E000CF91DF910895DF93CF93CDB7DEB787E24C
:1001F0006EE70E94960180E26AE70E94960181EE16
:100200000E94BE0180EA64E00E9461018BE290E0FE
:100210002BE230E0F90120812064FC01208381E0A1
:1002200090E00E946F008BE290E02BE230E0F90159
:1002300020812F7BFC012083CF91DF910895DF93F4
:10024000CF93CDB7DEB78BE290E02BE230E0F9013F
:1002500020812F7BFC01208380E26CE70E949601C5
:1002600081E260E00E94960184E260E00E949601D3
:1002700083E263E00E94960186E267E00E949601B5
:1002800085E262E00E94960187EE8093040187EE8A
:100290008093050187EE8093060187EE8093070126
:1002A00087EE8093080180E365E00E94610180E2AF
:1002B0006AE70E9496018FEF0E94BE01CF91DF9105
:1002C0000895DF93CF9300D00F92CDB7DEB78A8326
:1002D0006B838BE290E02BE230E0F90120812D7FEF
:1002E000FC0120838A810E94E00119820CC089816F
:1002F000882F90E08C5F9E4FFC0180810E94E0017E
:1003000089818F5F898399818B81981780F38BE234
:1003100090E02BE230E0F90120812260FC01208393
:100320000F900F900F90CF91DF910895DF93CF93AF
:1003300000D00F92CDB7DEB78A836B838BE290E05B
:100340002BE230E0F90120812D7FFC0120838A819E
:100350000E94E0018B810E94E00189838BE290E0A2
:100360002BE230E0F90120812260FC0120838981A9
:100370000F900F900F90CF91DF910895DF93CF935F
:1003800000D0CDB7DEB78A838BE290E02BE230E07D
:10039000F90120812D7FFC0120838A810E94E001E8
:1003A00089838BE290E02BE230E0F901208122602A
:1003B000FC01208389810F900F90CF91DF910895E8
:1003C000DF93CF9300D00F92CDB7DEB78B831A8225
:1003D000198246C08B81882354F485E290E025E29F
:1003E00030E0F90120812860FC01208309C085E20A
:1003F00090E025E230E0F9012081277FFC01208395
:1004000085E290E025E230E0F90120812062FC01E4
:10041000208385E090E00E9448008A81880F8A83CB
:1004200083E290E0FC018081882F90E080719070E1
:10043000009719F08A8181608A8385E290E025E245
:1004400030E0F90120812F7DFC01208385E090E0E0
:100450000E9448008B81880F8B8389818F5F8983FD
:100460008981883008F4B6CF8A810F900F900F9061
:10047000CF91DF910895DF93CF93CDB7DEB78BE2B5
:1004800090E02BE230E0F90120812F7BFC012083FA
:1004900080E26DE30E94960181E260E00E94960195
:1004A00086E267E00E94960181E364E00E94960183
:1004B00080E26BE30E9496018BE290E02BE230E059
:1004C000F90120812064FC012083CF91DF91089500
:1004D000DF93CF9300D000D0CDB7DEB781E68C8319
:1004E0008BE290E02BE230E0F90120812D7FFC01CE
:1004F000208385E090E00E944800198236C08C81FC
:10050000882354F485E290E025E230E0F90120816F
:100510002860FC01208309C085E290E025E230E0FC
:10052000F9012081277FFC01208385E290E025E20C
:1005300030E0F90120812062FC01208385E090E019
:100540000E94480085E290E025E230E0F901208138
:100550002F7DFC01208385E090E00E9448008C8183
:10056000880F8C8389818F5F89838981883038F2F5
:100570001A8242C01B82198231C08B81880F8B8303
:1005800083E290E0FC018081882F90E08071907080
:10059000009721F08B8181608B8303C08B818E7FDC
:1005A0008B8385E290E025E230E0F9012081206232
:1005B000FC01208385E090E00E94480085E290E005
:1005C00025E230E0F90120812F7DFC01208385E0C8
:1005D00090E00E94480089818F5F898389818830FB
:1005E00060F28A81882F90E080509F4F2B81FC0120
:1005F00020838A818F5F8A838A81843008F4BACF0E
:1006000085E290E025E230E0F90120812260FC01E2
:10061000208382EE0E94BE0187E260E40E94960180
:100620000F900F900F900F90CF91DF910895DF936F
:10063000CF93CDB7DEB70E9495000E941F0181E0E5
:1006400090E00E9440038093040182E090E00E94C9
:1006500040038093050183E090E00E944003809373
:10066000060189E090E00E944003809307010E9408
:10067000F3000E943B0284EF91E00E946F00DDCF07
:10068000FB019F01E8944230C4F04532B4F44A3093
:1006900029F497FB1EF4909581959F4F642F77273F
:1006A0000E947103805D8A330CF0895D8193CB01D8
:1006B0000097A1F716F45DE251931082C9010C94E2
:1006C0006103DC01FC01672F71917723E1F7329719
:1006D00004C07C916D9370836291AE17BF07C8F31D
:1006E0000895AA1BBB1B51E107C0AA1FBB1FA61779
:1006F000B70710F0A61BB70B881F991F5A95A9F7CB
:0E07000080959095BC01CD010895F894FFCF2F
:00000001FF
