:100000000C9434000C9451000C9451000C94510049
:100010000C9451000C9451000C9451000C9451001C
:100020000C9451000C9451000C9451000C9451000C
:100030000C9451000C9451000C9451000C945100FC
:100040000C9451000C9451000C9451000C945100EC
:100050000C9451000C9451000C9451000C945100DC
:100060000C9451000C94510011241FBECFEFD8E026
:10007000DEBFCDBF11E0A0E0B1E0E6E8F6E002C0EF
:1000800005900D92A830B107D9F711E0A8E0B1E0D2
:1000900001C01D92A531B107E1F70E9422030C9423
:1000A00041030C940000DF93CF9300D0CDB7DEB7AF
:1000B0009A83898387E390E021E0FC01208382EB2F
:1000C00090E029812195FC01208381EB90E021E0E3
:1000D000FC012083000087E390E0FC018081882FF1
:1000E00090E0817090700097B1F30F900F90CF91D6
:1000F000DF910895DF93CF9300D0CDB7DEB79A8319
:10010000898315C08AEF90E00E9453008AEF90E047
:100110000E9453008AEF90E00E9453008AEF90E023
:100120000E94530089819A8101979A8389838981EA
:100130009A81009739F70F900F90CF91DF91089532
:10014000DF93CF93CDB7DEB784E290E024E230E0D6
:10015000F90120812862FC0120838AE290E02AE2F2
:1001600030E0F90120812264FC01208385E290E0E7
:100170002FEFFC0120838BE290E02BE230E0F901CD
:1001800020812F7BFC012083CF91DF910895DF93A5
:10019000CF9300D00F92CDB7DEB79B838A831982AD
:1001A00014C08981882F90E02A813B81820F931FA0
:1001B000FC01808180930D010E94FE0085E090E0AB
:1001C0000E947A0089818F5F89838981882F90E0DE
:1001D0002A813B81820F931FFC018081882309F7CC
:1001E00010920D010E94FE0085E090E00E947A00CE
:1001F0000F900F900F90CF91DF910895DF93CF93E1
:10020000CDB7DEB787E26EE70E94A10180E26AE720
:100210000E94A10181EE0E94C90180EA64E00E946F
:100220006C018BE290E02BE230E0F9012081206448
:10023000FC01208381E090E00E947A008BE290E054
:100240002BE230E0F90120812F7BFC012083CF914C
:10025000DF910895DF93CF93CDB7DEB78BE290E0C7
:100260002BE230E0F90120812F7BFC01208380E22A
:100270006CE70E94A10181E260E00E94A10184E29A
:1002800060E00E94A10183E263E00E94A10186E296
:1002900067E00E94A10185E262E00E94A10187EE71
:1002A00080930C0187EE80930D0187EE80930E0101
:1002B00087EE80930F0187EE8093100180E365E065
:1002C0000E946C0180E26AE70E94A1018FEF0E9408
:1002D000C901CF91DF910895DF93CF9300D00F92A2
:1002E000CDB7DEB78A836B838BE290E02BE230E000
:1002F000F90120812D7FFC0120838A810E94EB017E
:1003000019820CC08981882F90E0845F9E4FFC0188
:1003100080810E94EB0189818F5F898399818B8124
:10032000981780F38BE290E02BE230E0F901208116
:100330002260FC0120830F900F900F90CF91DF91EE
:100340000895DF93CF9300D00F92CDB7DEB78A83A5
:100350006B838BE290E02BE230E0F90120812D7F6E
:10036000FC0120838A810E94EB018B810E94EB01BA
:1003700089838BE290E02BE230E0F901208122605A
:10038000FC01208389810F900F900F90CF91DF9116
:100390000895DF93CF9300D0CDB7DEB78A838BE289
:1003A00090E02BE230E0F90120812D7FFC012083D9
:1003B0008A810E94EB0189838BE290E02BE230E09E
:1003C000F90120812260FC01208389810F900F9028
:1003D000CF91DF910895DF93CF9300D00F92CDB7E7
:1003E000DEB78B831A82198246C08B81882354F42E
:1003F00085E290E025E230E0F90120812860FC01EF
:10040000208309C085E290E025E230E0F9012081F7
:10041000277FFC01208385E290E025E230E0F901AE
:1004200020812062FC01208385E090E00E9453003F
:100430008A81880F8A8383E290E0FC018081882F83
:1004400090E080719070009719F08A8181608A83B2
:1004500085E290E025E230E0F90120812F7DFC016A
:10046000208385E090E00E9453008B81880F8B836E
:1004700089818F5F89838981883008F4B6CF8A812A
:100480000F900F900F90CF91DF910895DF93CF934E
:10049000CDB7DEB78BE290E02BE230E0F9012081AE
:1004A0002F7BFC01208380E26DE30E94A10181E2A9
:1004B00060E00E94A10186E267E00E94A10181E361
:1004C00064E00E94A10180E26BE30E94A1018BE243
:1004D00090E02BE230E0F90120812064FC012083D0
:1004E000CF91DF910895DF93CF9300D000D0CDB7A7
:1004F000DEB781E68C838BE290E02BE230E0F901FD
:1005000020812D7FFC01208385E090E00E94530034
:10051000198236C08C81882354F485E290E025E26C
:1005200030E0F90120812860FC01208309C085E2C8
:1005300090E025E230E0F9012081277FFC01208353
:1005400085E290E025E230E0F90120812062FC01A3
:10055000208385E090E00E94530085E290E025E250
:1005600030E0F90120812F7DFC01208385E090E0BF
:100570000E9453008C81880F8C8389818F5F8983CF
:100580008981883038F21A8242C01B82198231C0B8
:100590008B81880F8B8383E290E0FC018081882F20
:1005A00090E080719070009721F08B8181608B8347
:1005B00003C08B818E7F8B8385E290E025E230E063
:1005C000F90120812062FC01208385E090E00E94F7
:1005D000530085E290E025E230E0F90120812F7D93
:1005E000FC01208385E090E00E94530089818F5FA9
:1005F00089838981883060F28A81882F90E0885FC2
:100600009E4F2B81FC0120838A818F5F8A838A81A0
:10061000843008F4BACF85E290E025E230E0F901B9
:1006200020812260FC01208382EE0E94C90187E2C2
:1006300060E40E94A1010F900F900F900F90CF9156
:10064000DF910895DF93CF93CDB7DEB70E942A01E3
:1006500080E091E080930C0182E091E080930D01B5
:1006600084E091E080930E0186E091E080930F0199
:100670000E94FE000E94460284E690E00E947A00FA
:06068000E5CFF894FFCF66
:08068600480045004C004F0044
:00000001FF
